{
  "_format": "hh-sol-artifact-1",
  "contractName": "Central",
  "sourceName": "contracts/Central.sol",
  "abi": [
    {
      "inputs": [],
      "stateMutability": "nonpayable",
      "type": "constructor"
    },
    {
      "inputs": [
        {
          "internalType": "uint256",
          "name": "",
          "type": "uint256"
        }
      ],
      "name": "AllExistingMembers",
      "outputs": [
        {
          "internalType": "address",
          "name": "walletAddress",
          "type": "address"
        },
        {
          "internalType": "string",
          "name": "username",
          "type": "string"
        }
      ],
      "stateMutability": "view",
      "type": "function"
    },
    {
      "inputs": [
        {
          "internalType": "address",
          "name": "",
          "type": "address"
        },
        {
          "internalType": "uint256",
          "name": "",
          "type": "uint256"
        }
      ],
      "name": "InfoOfProductAndContractAddress",
      "outputs": [
        {
          "internalType": "address",
          "name": "contractAddress",
          "type": "address"
        },
        {
          "internalType": "string",
          "name": "productName",
          "type": "string"
        }
      ],
      "stateMutability": "view",
      "type": "function"
    },
    {
      "inputs": [
        {
          "internalType": "address",
          "name": "_walletAddress",
          "type": "address"
        }
      ],
      "name": "IsThisAlreadyNominated",
      "outputs": [
        {
          "internalType": "bool",
          "name": "",
          "type": "bool"
        }
      ],
      "stateMutability": "view",
      "type": "function"
    },
    {
      "inputs": [
        {
          "internalType": "address",
          "name": "_walletAddress",
          "type": "address"
        }
      ],
      "name": "IsThisAvilableInVotingArray",
      "outputs": [
        {
          "internalType": "bool",
          "name": "",
          "type": "bool"
        }
      ],
      "stateMutability": "view",
      "type": "function"
    },
    {
      "inputs": [
        {
          "internalType": "address",
          "name": "_walletAddress",
          "type": "address"
        }
      ],
      "name": "Iswalletexits",
      "outputs": [
        {
          "internalType": "bool",
          "name": "",
          "type": "bool"
        }
      ],
      "stateMutability": "view",
      "type": "function"
    },
    {
      "inputs": [
        {
          "internalType": "uint256",
          "name": "",
          "type": "uint256"
        }
      ],
      "name": "VotingMembersInfoArray",
      "outputs": [
        {
          "internalType": "address",
          "name": "walletAddress",
          "type": "address"
        },
        {
          "internalType": "string",
          "name": "username",
          "type": "string"
        }
      ],
      "stateMutability": "view",
      "type": "function"
    },
    {
      "inputs": [
        {
          "internalType": "address",
          "name": "_newWalletAddress",
          "type": "address"
        },
        {
          "internalType": "string",
          "name": "_newUsername",
          "type": "string"
        }
      ],
      "name": "addMemberForVoting",
      "outputs": [],
      "stateMutability": "nonpayable",
      "type": "function"
    },
    {
      "inputs": [
        {
          "internalType": "address",
          "name": "_contractAddress",
          "type": "address"
        },
        {
          "internalType": "string",
          "name": "_hashcode",
          "type": "string"
        }
      ],
      "name": "addProduct",
      "outputs": [],
      "stateMutability": "nonpayable",
      "type": "function"
    },
    {
      "inputs": [
        {
          "internalType": "address",
          "name": "_walletAddress",
          "type": "address"
        },
        {
          "internalType": "string",
          "name": "_productName",
          "type": "string"
        }
      ],
      "name": "createSmartContract",
      "outputs": [],
      "stateMutability": "nonpayable",
      "type": "function"
    },
    {
      "inputs": [
        {
          "internalType": "address",
          "name": "_contractAddress",
          "type": "address"
        }
      ],
      "name": "getAllProducts",
      "outputs": [
        {
          "components": [
            {
              "internalType": "string",
              "name": "hashCodeHash",
              "type": "string"
            },
            {
              "internalType": "uint256",
              "name": "timestamp",
              "type": "uint256"
            }
          ],
          "internalType": "struct Company.Product[]",
          "name": "",
          "type": "tuple[]"
        }
      ],
      "stateMutability": "view",
      "type": "function"
    },
    {
      "inputs": [],
      "name": "getAllWallets",
      "outputs": [
        {
          "components": [
            {
              "internalType": "address",
              "name": "walletAddress",
              "type": "address"
            },
            {
              "internalType": "string",
              "name": "username",
              "type": "string"
            }
          ],
          "internalType": "struct Central.Wallet[]",
          "name": "",
          "type": "tuple[]"
        }
      ],
      "stateMutability": "view",
      "type": "function"
    },
    {
      "inputs": [
        {
          "internalType": "address",
          "name": "_walletAddress",
          "type": "address"
        }
      ],
      "name": "getCompanySmartContractInfo",
      "outputs": [
        {
          "components": [
            {
              "internalType": "address",
              "name": "contractAddress",
              "type": "address"
            },
            {
              "internalType": "string",
              "name": "productName",
              "type": "string"
            }
          ],
          "internalType": "struct Central.ContractInfo[]",
          "name": "",
          "type": "tuple[]"
        }
      ],
      "stateMutability": "view",
      "type": "function"
    },
    {
      "inputs": [
        {
          "internalType": "address",
          "name": "_walletAddress",
          "type": "address"
        }
      ],
      "name": "getLastContractInfo",
      "outputs": [
        {
          "internalType": "address",
          "name": "contractAddress",
          "type": "address"
        }
      ],
      "stateMutability": "view",
      "type": "function"
    },
    {
      "inputs": [],
      "name": "getOpenVotingMembers",
      "outputs": [
        {
          "components": [
            {
              "internalType": "address",
              "name": "walletAddress",
              "type": "address"
            },
            {
              "internalType": "string",
              "name": "username",
              "type": "string"
            },
            {
              "internalType": "uint256",
              "name": "yesVotes",
              "type": "uint256"
            },
            {
              "internalType": "uint256",
              "name": "noVotes",
              "type": "uint256"
            }
          ],
          "internalType": "struct Central.VotingMember[]",
          "name": "",
          "type": "tuple[]"
        }
      ],
      "stateMutability": "view",
      "type": "function"
    },
    {
      "inputs": [],
      "name": "getSelfCompanySmartContractInfo",
      "outputs": [
        {
          "components": [
            {
              "internalType": "address",
              "name": "contractAddress",
              "type": "address"
            },
            {
              "internalType": "string",
              "name": "productName",
              "type": "string"
            }
          ],
          "internalType": "struct Central.ContractInfo[]",
          "name": "",
          "type": "tuple[]"
        }
      ],
      "stateMutability": "view",
      "type": "function"
    },
    {
      "inputs": [],
      "name": "totalExistingWallets",
      "outputs": [
        {
          "internalType": "uint256",
          "name": "",
          "type": "uint256"
        }
      ],
      "stateMutability": "view",
      "type": "function"
    },
    {
      "inputs": [
        {
          "internalType": "string",
          "name": "_productHashCode",
          "type": "string"
        }
      ],
      "name": "verifyProduct",
      "outputs": [
        {
          "internalType": "bool",
          "name": "",
          "type": "bool"
        }
      ],
      "stateMutability": "view",
      "type": "function"
    },
    {
      "inputs": [
        {
          "internalType": "address",
          "name": "_newWalletAddress",
          "type": "address"
        },
        {
          "internalType": "bool",
          "name": "_vote",
          "type": "bool"
        },
        {
          "internalType": "string",
          "name": "_username",
          "type": "string"
        }
      ],
      "name": "voteToAddWallet",
      "outputs": [],
      "stateMutability": "nonpayable",
      "type": "function"
    }
  ],
  "bytecode": "0x60806040523480156200001157600080fd5b50600060405180604001604052803373ffffffffffffffffffffffffffffffffffffffff1681526020016040518060400160405280601c81526020017f456e74616e676c652050726f64756374696f6e73204c696d6974656400000000815250815250908060018154018082558091505060019003906000526020600020906002020160009091909190915060008201518160000160006101000a81548173ffffffffffffffffffffffffffffffffffffffff021916908373ffffffffffffffffffffffffffffffffffffffff1602179055506020820151816001019081620000fb919062000386565b50505060016004819055506200046d565b600081519050919050565b7f4e487b7100000000000000000000000000000000000000000000000000000000600052604160045260246000fd5b7f4e487b7100000000000000000000000000000000000000000000000000000000600052602260045260246000fd5b600060028204905060018216806200018e57607f821691505b602082108103620001a457620001a362000146565b5b50919050565b60008190508160005260206000209050919050565b60006020601f8301049050919050565b600082821b905092915050565b6000600883026200020e7fffffffffffffffffffffffffffffffffffffffffffffffffffffffffffffffff82620001cf565b6200021a8683620001cf565b95508019841693508086168417925050509392505050565b6000819050919050565b6000819050919050565b600062000267620002616200025b8462000232565b6200023c565b62000232565b9050919050565b6000819050919050565b620002838362000246565b6200029b62000292826200026e565b848454620001dc565b825550505050565b600090565b620002b2620002a3565b620002bf81848462000278565b505050565b5b81811015620002e757620002db600082620002a8565b600181019050620002c5565b5050565b601f82111562000336576200030081620001aa565b6200030b84620001bf565b810160208510156200031b578190505b620003336200032a85620001bf565b830182620002c4565b50505b505050565b600082821c905092915050565b60006200035b600019846008026200033b565b1980831691505092915050565b600062000376838362000348565b9150826002028217905092915050565b62000391826200010c565b67ffffffffffffffff811115620003ad57620003ac62000117565b5b620003b9825462000175565b620003c6828285620002eb565b600060209050601f831160018114620003fe5760008415620003e9578287015190505b620003f5858262000368565b86555062000465565b601f1984166200040e86620001aa565b60005b82811015620004385784890151825560018201915060208501945060208101905062000411565b8683101562000458578489015162000454601f89168262000348565b8355505b6001600288020188555050505b505050505050565b614353806200047d6000396000f3fe608060405234801561001057600080fd5b50600436106101165760003560e01c806352c7474c116100a257806392efc4531161007157806392efc4531461032f578063a6bb8b1f1461035f578063ad7df03d14610390578063e59b8339146103ac578063f4819f3a146103c857610116565b806352c7474c146102825780635c60a429146102b257806364297690146102ce5780636cc8d198146102fe57610116565b80631ec77de2116100e95780631ec77de2146101b7578063256c47b7146101d5578063338308911461020657806346cf305514610236578063517afd2a1461026657610116565b80630165c41c1461011b5780630baff658146101395780630bfd6aad146101695780631bfa860114610199575b600080fd5b6101236103e6565b6040516101309190612197565b60405180910390f35b610153600480360381019061014e91906121f9565b6105b2565b6040516101609190612241565b60405180910390f35b610183600480360381019061017e91906121f9565b610667565b6040516101909190612374565b60405180910390f35b6101a16106e4565b6040516101ae9190612495565b60405180910390f35b6101bf61082b565b6040516101cc91906125dc565b60405180910390f35b6101ef60048036038101906101ea919061262a565b610bde565b6040516101fd9291906126b0565b60405180910390f35b610220600480360381019061021b91906121f9565b610cba565b60405161022d9190612241565b60405180910390f35b610250600480360381019061024b91906121f9565b610dcf565b60405161025d9190612197565b60405180910390f35b610280600480360381019061027b9190612841565b610f9d565b005b61029c600480360381019061029791906121f9565b61153a565b6040516102a99190612241565b60405180910390f35b6102cc60048036038101906102c791906128b0565b6115ec565b005b6102e860048036038101906102e391906121f9565b6116ad565b6040516102f5919061290c565b60405180910390f35b6103186004803603810190610313919061262a565b61179f565b6040516103269291906126b0565b60405180910390f35b61034960048036038101906103449190612927565b61187b565b6040516103569190612241565b60405180910390f35b61037960048036038101906103749190612970565b611a91565b6040516103879291906126b0565b60405180910390f35b6103aa60048036038101906103a591906128b0565b611b7a565b005b6103c660048036038101906103c191906128b0565b611ce8565b005b6103d0611f76565b6040516103dd91906129bf565b60405180910390f35b60606103f13361153a565b610430576040517f08c379a000000000000000000000000000000000000000000000000000000000815260040161042790612a26565b60405180910390fd5b600260003373ffffffffffffffffffffffffffffffffffffffff1673ffffffffffffffffffffffffffffffffffffffff168152602001908152602001600020805480602002602001604051908101604052809291908181526020016000905b828210156105a957838290600052602060002090600202016040518060400160405290816000820160009054906101000a900473ffffffffffffffffffffffffffffffffffffffff1673ffffffffffffffffffffffffffffffffffffffff1673ffffffffffffffffffffffffffffffffffffffff16815260200160018201805461051890612a75565b80601f016020809104026020016040519081016040528092919081815260200182805461054490612a75565b80156105915780601f1061056657610100808354040283529160200191610591565b820191906000526020600020905b81548152906001019060200180831161057457829003601f168201915b5050505050815250508152602001906001019061048f565b50505050905090565b600080600090505b60018054905081101561065c578273ffffffffffffffffffffffffffffffffffffffff16600182815481106105f2576105f1612aa6565b5b906000526020600020906002020160000160009054906101000a900473ffffffffffffffffffffffffffffffffffffffff1673ffffffffffffffffffffffffffffffffffffffff1603610649576001915050610662565b808061065490612b04565b9150506105ba565b50600090505b919050565b60608173ffffffffffffffffffffffffffffffffffffffff16638737a9996040518163ffffffff1660e01b8152600401600060405180830381865afa1580156106b4573d6000803e3d6000fd5b505050506040513d6000823e3d601f19601f820116820180604052508101906106dd9190612d2d565b9050919050565b60606000805480602002602001604051908101604052809291908181526020016000905b8282101561082257838290600052602060002090600202016040518060400160405290816000820160009054906101000a900473ffffffffffffffffffffffffffffffffffffffff1673ffffffffffffffffffffffffffffffffffffffff1673ffffffffffffffffffffffffffffffffffffffff16815260200160018201805461079190612a75565b80601f01602080910402602001604051908101604052809291908181526020018280546107bd90612a75565b801561080a5780601f106107df5761010080835404028352916020019161080a565b820191906000526020600020905b8154815290600101906020018083116107ed57829003601f168201915b50505050508152505081526020019060010190610708565b50505050905090565b60606000805b6001805490508110156108fa57600360006001838154811061085657610855612aa6565b5b906000526020600020906002020160000160009054906101000a900473ffffffffffffffffffffffffffffffffffffffff1673ffffffffffffffffffffffffffffffffffffffff1673ffffffffffffffffffffffffffffffffffffffff16815260200190815260200160002060030160009054906101000a900460ff16156108e75781806108e390612b04565b9250505b80806108f290612b04565b915050610831565b5060008167ffffffffffffffff81111561091757610916612716565b5b60405190808252806020026020018201604052801561095057816020015b61093d611f7c565b8152602001906001900390816109355790505b5090506000805b600180549050811015610bd45760006001828154811061097a57610979612aa6565b5b906000526020600020906002020160000160009054906101000a900473ffffffffffffffffffffffffffffffffffffffff169050600360008273ffffffffffffffffffffffffffffffffffffffff1673ffffffffffffffffffffffffffffffffffffffff16815260200190815260200160002060030160009054906101000a900460ff1615610bc057610a0b611f7c565b81816000019073ffffffffffffffffffffffffffffffffffffffff16908173ffffffffffffffffffffffffffffffffffffffff168152505060018381548110610a5757610a56612aa6565b5b90600052602060002090600202016001018054610a7390612a75565b80601f0160208091040260200160405190810160405280929190818152602001828054610a9f90612a75565b8015610aec5780601f10610ac157610100808354040283529160200191610aec565b820191906000526020600020905b815481529060010190602001808311610acf57829003601f168201915b50505050508160200181905250600360008373ffffffffffffffffffffffffffffffffffffffff1673ffffffffffffffffffffffffffffffffffffffff16815260200190815260200160002060000154816040018181525050600360008373ffffffffffffffffffffffffffffffffffffffff1673ffffffffffffffffffffffffffffffffffffffff1681526020019081526020016000206001015481606001818152505080858581518110610ba557610ba4612aa6565b5b60200260200101819052508380610bbb90612b04565b945050505b508080610bcc90612b04565b915050610957565b5081935050505090565b60008181548110610bee57600080fd5b90600052602060002090600202016000915090508060000160009054906101000a900473ffffffffffffffffffffffffffffffffffffffff1690806001018054610c3790612a75565b80601f0160208091040260200160405190810160405280929190818152602001828054610c6390612a75565b8015610cb05780601f10610c8557610100808354040283529160200191610cb0565b820191906000526020600020905b815481529060010190602001808311610c9357829003601f168201915b5050505050905082565b600080600090505b600180549050811015610dc4578273ffffffffffffffffffffffffffffffffffffffff1660018281548110610cfa57610cf9612aa6565b5b906000526020600020906002020160000160009054906101000a900473ffffffffffffffffffffffffffffffffffffffff1673ffffffffffffffffffffffffffffffffffffffff16148015610da2575060011515600360008573ffffffffffffffffffffffffffffffffffffffff1673ffffffffffffffffffffffffffffffffffffffff16815260200190815260200160002060030160009054906101000a900460ff161515145b15610db1576001915050610dca565b8080610dbc90612b04565b915050610cc2565b50600090505b919050565b6060610dda8261153a565b610e19576040517f08c379a0000000000000000000000000000000000000000000000000000000008152600401610e1090612a26565b60405180910390fd5b600260008373ffffffffffffffffffffffffffffffffffffffff1673ffffffffffffffffffffffffffffffffffffffff168152602001908152602001600020805480602002602001604051908101604052809291908181526020016000905b82821015610f9257838290600052602060002090600202016040518060400160405290816000820160009054906101000a900473ffffffffffffffffffffffffffffffffffffffff1673ffffffffffffffffffffffffffffffffffffffff1673ffffffffffffffffffffffffffffffffffffffff168152602001600182018054610f0190612a75565b80601f0160208091040260200160405190810160405280929190818152602001828054610f2d90612a75565b8015610f7a5780601f10610f4f57610100808354040283529160200191610f7a565b820191906000526020600020905b815481529060010190602001808311610f5d57829003601f168201915b50505050508152505081526020019060010190610e78565b505050509050919050565b33610fa78161153a565b610fe6576040517f08c379a0000000000000000000000000000000000000000000000000000000008152600401610fdd90612a26565b60405180910390fd5b610fef84610cba565b61102e576040517f08c379a000000000000000000000000000000000000000000000000000000000815260040161102590612dc2565b60405180910390fd5b600360008573ffffffffffffffffffffffffffffffffffffffff1673ffffffffffffffffffffffffffffffffffffffff16815260200190815260200160002060030160009054906101000a900460ff166110bd576040517f08c379a00000000000000000000000000000000000000000000000000000000081526004016110b490612e2e565b60405180910390fd5b600360008573ffffffffffffffffffffffffffffffffffffffff1673ffffffffffffffffffffffffffffffffffffffff16815260200190815260200160002060020160003373ffffffffffffffffffffffffffffffffffffffff1673ffffffffffffffffffffffffffffffffffffffff16815260200190815260200160002060009054906101000a900460ff161561118a576040517f08c379a000000000000000000000000000000000000000000000000000000000815260040161118190612e9a565b60405180910390fd5b82156111ef576001600360008673ffffffffffffffffffffffffffffffffffffffff1673ffffffffffffffffffffffffffffffffffffffff16815260200190815260200160002060000160008282546111e39190612eba565b9250508190555061124a565b6001600360008673ffffffffffffffffffffffffffffffffffffffff1673ffffffffffffffffffffffffffffffffffffffff16815260200190815260200160002060010160008282546112429190612eba565b925050819055505b6001600360008673ffffffffffffffffffffffffffffffffffffffff1673ffffffffffffffffffffffffffffffffffffffff16815260200190815260200160002060020160003373ffffffffffffffffffffffffffffffffffffffff1673ffffffffffffffffffffffffffffffffffffffff16815260200190815260200160002060006101000a81548160ff021916908315150217905550600160026004546112f39190612f1d565b6112fd9190612eba565b600360008673ffffffffffffffffffffffffffffffffffffffff1673ffffffffffffffffffffffffffffffffffffffff168152602001908152602001600020600001541061147457600060405180604001604052808673ffffffffffffffffffffffffffffffffffffffff16815260200184815250908060018154018082558091505060019003906000526020600020906002020160009091909190915060008201518160000160006101000a81548173ffffffffffffffffffffffffffffffffffffffff021916908373ffffffffffffffffffffffffffffffffffffffff16021790555060208201518160010190816113f791906130fa565b50505060016004600082825461140d9190612eba565b925050819055506000600360008673ffffffffffffffffffffffffffffffffffffffff1673ffffffffffffffffffffffffffffffffffffffff16815260200190815260200160002060030160006101000a81548160ff021916908315150217905550611534565b600160026004546114859190612f1d565b61148f9190612eba565b600360008673ffffffffffffffffffffffffffffffffffffffff1673ffffffffffffffffffffffffffffffffffffffff1681526020019081526020016000206001015410611533576000600360008673ffffffffffffffffffffffffffffffffffffffff1673ffffffffffffffffffffffffffffffffffffffff16815260200190815260200160002060030160006101000a81548160ff0219169083151502179055505b5b50505050565b600080600090505b6004548110156115e1578273ffffffffffffffffffffffffffffffffffffffff166000828154811061157757611576612aa6565b5b906000526020600020906002020160000160009054906101000a900473ffffffffffffffffffffffffffffffffffffffff1673ffffffffffffffffffffffffffffffffffffffff16036115ce5760019150506115e7565b80806115d990612b04565b915050611542565b50600090505b919050565b336115f68161153a565b611635576040517f08c379a000000000000000000000000000000000000000000000000000000000815260040161162c90612a26565b60405180910390fd5b60008390508073ffffffffffffffffffffffffffffffffffffffff1663b15247d984426040518363ffffffff1660e01b81526004016116759291906131cc565b600060405180830381600087803b15801561168f57600080fd5b505af11580156116a3573d6000803e3d6000fd5b5050505050505050565b6000816116b98161153a565b6116f8576040517f08c379a00000000000000000000000000000000000000000000000000000000081526004016116ef90612a26565b60405180910390fd5b6000600260008573ffffffffffffffffffffffffffffffffffffffff1673ffffffffffffffffffffffffffffffffffffffff16815260200190815260200160002090506000816001838054905061174f91906131fc565b815481106117605761175f612aa6565b5b906000526020600020906002020190508060000160009054906101000a900473ffffffffffffffffffffffffffffffffffffffff169350505050919050565b600181815481106117af57600080fd5b90600052602060002090600202016000915090508060000160009054906101000a900473ffffffffffffffffffffffffffffffffffffffff16908060010180546117f890612a75565b80601f016020809104026020016040519081016040528092919081815260200182805461182490612a75565b80156118715780601f1061184657610100808354040283529160200191611871565b820191906000526020600020905b81548152906001019060200180831161185457829003601f168201915b5050505050905082565b600080600090505b600080549050811015611a865760008082815481106118a5576118a4612aa6565b5b9060005260206000209060020201905060005b600260008360000160009054906101000a900473ffffffffffffffffffffffffffffffffffffffff1673ffffffffffffffffffffffffffffffffffffffff1673ffffffffffffffffffffffffffffffffffffffff16815260200190815260200160002080549050811015611a71576000600260008460000160009054906101000a900473ffffffffffffffffffffffffffffffffffffffff1673ffffffffffffffffffffffffffffffffffffffff1673ffffffffffffffffffffffffffffffffffffffff168152602001908152602001600020828154811061199d5761199c612aa6565b5b906000526020600020906002020190508060000160009054906101000a900473ffffffffffffffffffffffffffffffffffffffff1673ffffffffffffffffffffffffffffffffffffffff166392efc453876040518263ffffffff1660e01b8152600401611a0a9190613230565b602060405180830381865afa158015611a27573d6000803e3d6000fd5b505050506040513d601f19601f82011682018060405250810190611a4b9190613267565b15611a5d576001945050505050611a8c565b508080611a6990612b04565b9150506118b8565b50508080611a7e90612b04565b915050611883565b50600090505b919050565b60026020528160005260406000208181548110611aad57600080fd5b9060005260206000209060020201600091509150508060000160009054906101000a900473ffffffffffffffffffffffffffffffffffffffff1690806001018054611af790612a75565b80601f0160208091040260200160405190810160405280929190818152602001828054611b2390612a75565b8015611b705780601f10611b4557610100808354040283529160200191611b70565b820191906000526020600020905b815481529060010190602001808311611b5357829003601f168201915b5050505050905082565b81611b848161153a565b611bc3576040517f08c379a0000000000000000000000000000000000000000000000000000000008152600401611bba90612a26565b60405180910390fd5b6000604051611bd190611fba565b604051809103906000f080158015611bed573d6000803e3d6000fd5b509050600260003373ffffffffffffffffffffffffffffffffffffffff1673ffffffffffffffffffffffffffffffffffffffff16815260200190815260200160002060405180604001604052808373ffffffffffffffffffffffffffffffffffffffff16815260200185815250908060018154018082558091505060019003906000526020600020906002020160009091909190915060008201518160000160006101000a81548173ffffffffffffffffffffffffffffffffffffffff021916908373ffffffffffffffffffffffffffffffffffffffff1602179055506020820151816001019081611cdf91906130fa565b50505050505050565b33611cf28161153a565b611d31576040517f08c379a0000000000000000000000000000000000000000000000000000000008152600401611d2890612a26565b60405180910390fd5b611d3a83610cba565b15611d7a576040517f08c379a0000000000000000000000000000000000000000000000000000000008152600401611d7190613306565b60405180910390fd5b611d838361153a565b15611dc3576040517f08c379a0000000000000000000000000000000000000000000000000000000008152600401611dba90613372565b60405180910390fd5b611dcc836105b2565b611e8657600160405180604001604052808573ffffffffffffffffffffffffffffffffffffffff16815260200184815250908060018154018082558091505060019003906000526020600020906002020160009091909190915060008201518160000160006101000a81548173ffffffffffffffffffffffffffffffffffffffff021916908373ffffffffffffffffffffffffffffffffffffffff1602179055506020820151816001019081611e8291906130fa565b5050505b6001600360008573ffffffffffffffffffffffffffffffffffffffff1673ffffffffffffffffffffffffffffffffffffffff16815260200190815260200160002060030160006101000a81548160ff0219169083151502179055506000600360008573ffffffffffffffffffffffffffffffffffffffff1673ffffffffffffffffffffffffffffffffffffffff168152602001908152602001600020600001819055506000600360008573ffffffffffffffffffffffffffffffffffffffff1673ffffffffffffffffffffffffffffffffffffffff16815260200190815260200160002060010181905550505050565b60045481565b6040518060800160405280600073ffffffffffffffffffffffffffffffffffffffff1681526020016060815260200160008152602001600081525090565b610f8b8061339383390190565b600081519050919050565b600082825260208201905092915050565b6000819050602082019050919050565b600073ffffffffffffffffffffffffffffffffffffffff82169050919050565b600061201e82611ff3565b9050919050565b61202e81612013565b82525050565b600081519050919050565b600082825260208201905092915050565b60005b8381101561206e578082015181840152602081019050612053565b60008484015250505050565b6000601f19601f8301169050919050565b600061209682612034565b6120a0818561203f565b93506120b0818560208601612050565b6120b98161207a565b840191505092915050565b60006040830160008301516120dc6000860182612025565b50602083015184820360208601526120f4828261208b565b9150508091505092915050565b600061210d83836120c4565b905092915050565b6000602082019050919050565b600061212d82611fc7565b6121378185611fd2565b93508360208202850161214985611fe3565b8060005b8581101561218557848403895281516121668582612101565b945061217183612115565b925060208a0199505060018101905061214d565b50829750879550505050505092915050565b600060208201905081810360008301526121b18184612122565b905092915050565b6000604051905090565b600080fd5b600080fd5b6121d681612013565b81146121e157600080fd5b50565b6000813590506121f3816121cd565b92915050565b60006020828403121561220f5761220e6121c3565b5b600061221d848285016121e4565b91505092915050565b60008115159050919050565b61223b81612226565b82525050565b60006020820190506122566000830184612232565b92915050565b600081519050919050565b600082825260208201905092915050565b6000819050602082019050919050565b6000819050919050565b61229b81612288565b82525050565b600060408301600083015184820360008601526122be828261208b565b91505060208301516122d36020860182612292565b508091505092915050565b60006122ea83836122a1565b905092915050565b6000602082019050919050565b600061230a8261225c565b6123148185612267565b93508360208202850161232685612278565b8060005b85811015612362578484038952815161234385826122de565b945061234e836122f2565b925060208a0199505060018101905061232a565b50829750879550505050505092915050565b6000602082019050818103600083015261238e81846122ff565b905092915050565b600081519050919050565b600082825260208201905092915050565b6000819050602082019050919050565b60006040830160008301516123da6000860182612025565b50602083015184820360208601526123f2828261208b565b9150508091505092915050565b600061240b83836123c2565b905092915050565b6000602082019050919050565b600061242b82612396565b61243581856123a1565b935083602082028501612447856123b2565b8060005b85811015612483578484038952815161246485826123ff565b945061246f83612413565b925060208a0199505060018101905061244b565b50829750879550505050505092915050565b600060208201905081810360008301526124af8184612420565b905092915050565b600081519050919050565b600082825260208201905092915050565b6000819050602082019050919050565b60006080830160008301516124fb6000860182612025565b5060208301518482036020860152612513828261208b565b91505060408301516125286040860182612292565b50606083015161253b6060860182612292565b508091505092915050565b600061255283836124e3565b905092915050565b6000602082019050919050565b6000612572826124b7565b61257c81856124c2565b93508360208202850161258e856124d3565b8060005b858110156125ca57848403895281516125ab8582612546565b94506125b68361255a565b925060208a01995050600181019050612592565b50829750879550505050505092915050565b600060208201905081810360008301526125f68184612567565b905092915050565b61260781612288565b811461261257600080fd5b50565b600081359050612624816125fe565b92915050565b6000602082840312156126405761263f6121c3565b5b600061264e84828501612615565b91505092915050565b61266081612013565b82525050565b600082825260208201905092915050565b600061268282612034565b61268c8185612666565b935061269c818560208601612050565b6126a58161207a565b840191505092915050565b60006040820190506126c56000830185612657565b81810360208301526126d78184612677565b90509392505050565b6126e981612226565b81146126f457600080fd5b50565b600081359050612706816126e0565b92915050565b600080fd5b600080fd5b7f4e487b7100000000000000000000000000000000000000000000000000000000600052604160045260246000fd5b61274e8261207a565b810181811067ffffffffffffffff8211171561276d5761276c612716565b5b80604052505050565b60006127806121b9565b905061278c8282612745565b919050565b600067ffffffffffffffff8211156127ac576127ab612716565b5b6127b58261207a565b9050602081019050919050565b82818337600083830152505050565b60006127e46127df84612791565b612776565b905082815260208101848484011115612800576127ff612711565b5b61280b8482856127c2565b509392505050565b600082601f8301126128285761282761270c565b5b81356128388482602086016127d1565b91505092915050565b60008060006060848603121561285a576128596121c3565b5b6000612868868287016121e4565b9350506020612879868287016126f7565b925050604084013567ffffffffffffffff81111561289a576128996121c8565b5b6128a686828701612813565b9150509250925092565b600080604083850312156128c7576128c66121c3565b5b60006128d5858286016121e4565b925050602083013567ffffffffffffffff8111156128f6576128f56121c8565b5b61290285828601612813565b9150509250929050565b60006020820190506129216000830184612657565b92915050565b60006020828403121561293d5761293c6121c3565b5b600082013567ffffffffffffffff81111561295b5761295a6121c8565b5b61296784828501612813565b91505092915050565b60008060408385031215612987576129866121c3565b5b6000612995858286016121e4565b92505060206129a685828601612615565b9150509250929050565b6129b981612288565b82525050565b60006020820190506129d460008301846129b0565b92915050565b7f57616c6c6574206164647265737320646f6573206e6f74206578697374000000600082015250565b6000612a10601d83612666565b9150612a1b826129da565b602082019050919050565b60006020820190508181036000830152612a3f81612a03565b9050919050565b7f4e487b7100000000000000000000000000000000000000000000000000000000600052602260045260246000fd5b60006002820490506001821680612a8d57607f821691505b602082108103612aa057612a9f612a46565b5b50919050565b7f4e487b7100000000000000000000000000000000000000000000000000000000600052603260045260246000fd5b7f4e487b7100000000000000000000000000000000000000000000000000000000600052601160045260246000fd5b6000612b0f82612288565b91507fffffffffffffffffffffffffffffffffffffffffffffffffffffffffffffffff8203612b4157612b40612ad5565b5b600182019050919050565b600067ffffffffffffffff821115612b6757612b66612716565b5b602082029050602081019050919050565b600080fd5b600080fd5b600080fd5b6000612b9a612b9584612791565b612776565b905082815260208101848484011115612bb657612bb5612711565b5b612bc1848285612050565b509392505050565b600082601f830112612bde57612bdd61270c565b5b8151612bee848260208601612b87565b91505092915050565b600081519050612c06816125fe565b92915050565b600060408284031215612c2257612c21612b7d565b5b612c2c6040612776565b9050600082015167ffffffffffffffff811115612c4c57612c4b612b82565b5b612c5884828501612bc9565b6000830152506020612c6c84828501612bf7565b60208301525092915050565b6000612c8b612c8684612b4c565b612776565b90508083825260208201905060208402830185811115612cae57612cad612b78565b5b835b81811015612cf557805167ffffffffffffffff811115612cd357612cd261270c565b5b808601612ce08982612c0c565b85526020850194505050602081019050612cb0565b5050509392505050565b600082601f830112612d1457612d1361270c565b5b8151612d24848260208601612c78565b91505092915050565b600060208284031215612d4357612d426121c3565b5b600082015167ffffffffffffffff811115612d6157612d606121c8565b5b612d6d84828501612cff565b91505092915050565b7f4d656d626572206973206e6f742070617274206f6620766f74696e6700000000600082015250565b6000612dac601c83612666565b9150612db782612d76565b602082019050919050565b60006020820190508181036000830152612ddb81612d9f565b9050919050565b7f566f74696e6720697320636c6f73656400000000000000000000000000000000600082015250565b6000612e18601083612666565b9150612e2382612de2565b602082019050919050565b60006020820190508181036000830152612e4781612e0b565b9050919050565b7f596f7520616c726561647920766f74656420746f206e6f6d696e617465000000600082015250565b6000612e84601d83612666565b9150612e8f82612e4e565b602082019050919050565b60006020820190508181036000830152612eb381612e77565b9050919050565b6000612ec582612288565b9150612ed083612288565b9250828201905080821115612ee857612ee7612ad5565b5b92915050565b7f4e487b7100000000000000000000000000000000000000000000000000000000600052601260045260246000fd5b6000612f2882612288565b9150612f3383612288565b925082612f4357612f42612eee565b5b828204905092915050565b60008190508160005260206000209050919050565b60006020601f8301049050919050565b600082821b905092915050565b600060088302612fb07fffffffffffffffffffffffffffffffffffffffffffffffffffffffffffffffff82612f73565b612fba8683612f73565b95508019841693508086168417925050509392505050565b6000819050919050565b6000612ff7612ff2612fed84612288565b612fd2565b612288565b9050919050565b6000819050919050565b61301183612fdc565b61302561301d82612ffe565b848454612f80565b825550505050565b600090565b61303a61302d565b613045818484613008565b505050565b5b818110156130695761305e600082613032565b60018101905061304b565b5050565b601f8211156130ae5761307f81612f4e565b61308884612f63565b81016020851015613097578190505b6130ab6130a385612f63565b83018261304a565b50505b505050565b600082821c905092915050565b60006130d1600019846008026130b3565b1980831691505092915050565b60006130ea83836130c0565b9150826002028217905092915050565b61310382612034565b67ffffffffffffffff81111561311c5761311b612716565b5b6131268254612a75565b61313182828561306d565b600060209050601f8311600181146131645760008415613152578287015190505b61315c85826130de565b8655506131c4565b601f19841661317286612f4e565b60005b8281101561319a57848901518255600182019150602085019450602081019050613175565b868310156131b757848901516131b3601f8916826130c0565b8355505b6001600288020188555050505b505050505050565b600060408201905081810360008301526131e68185612677565b90506131f560208301846129b0565b9392505050565b600061320782612288565b915061321283612288565b925082820390508181111561322a57613229612ad5565b5b92915050565b6000602082019050818103600083015261324a8184612677565b905092915050565b600081519050613261816126e0565b92915050565b60006020828403121561327d5761327c6121c3565b5b600061328b84828501613252565b91505092915050565b7f4d656d62657220616c72656164792070726573656e7420666f7220766f74696e60008201527f6700000000000000000000000000000000000000000000000000000000000000602082015250565b60006132f0602183612666565b91506132fb82613294565b604082019050919050565b6000602082019050818103600083015261331f816132e3565b9050919050565b7f4d656d62657220616c7265616479206120706172746e65720000000000000000600082015250565b600061335c601883612666565b915061336782613326565b602082019050919050565b6000602082019050818103600083015261338b8161334f565b905091905056fe608060405234801561001057600080fd5b50336000806101000a81548173ffffffffffffffffffffffffffffffffffffffff021916908373ffffffffffffffffffffffffffffffffffffffff16021790555042600181905550610f24806100676000396000f3fe608060405234801561001057600080fd5b506004361061004c5760003560e01c80638737a999146100515780638da5cb5b1461006f57806392efc4531461008d578063b15247d9146100bd575b600080fd5b6100596100d9565b6040516100669190610661565b60405180910390f35b6100776101d4565b60405161008491906106c4565b60405180910390f35b6100a760048036038101906100a29190610828565b6101f8565b6040516100b4919061088c565b60405180910390f35b6100d760048036038101906100d291906108d3565b610251565b005b60606003805480602002602001604051908101604052809291908181526020016000905b828210156101cb57838290600052602060002090600202016040518060400160405290816000820180546101309061095e565b80601f016020809104026020016040519081016040528092919081815260200182805461015c9061095e565b80156101a95780601f1061017e576101008083540402835291602001916101a9565b820191906000526020600020905b81548152906001019060200180831161018c57829003601f168201915b50505050508152602001600182015481525050815260200190600101906100fd565b50505050905090565b60008054906101000a900473ffffffffffffffffffffffffffffffffffffffff1681565b60008061022660008054906101000a900473ffffffffffffffffffffffffffffffffffffffff16843061047f565b90506002600082815260200190815260200160002060009054906101000a900460ff16915050919050565b60008054906101000a900473ffffffffffffffffffffffffffffffffffffffff1673ffffffffffffffffffffffffffffffffffffffff163373ffffffffffffffffffffffffffffffffffffffff16146102df576040517f08c379a00000000000000000000000000000000000000000000000000000000081526004016102d690610a12565b60405180910390fd5b6000825111610323576040517f08c379a000000000000000000000000000000000000000000000000000000000815260040161031a90610a7e565b60405180910390fd5b600061035060008054906101000a900473ffffffffffffffffffffffffffffffffffffffff16843061047f565b90506002600082815260200190815260200160002060009054906101000a900460ff16156103b3576040517f08c379a00000000000000000000000000000000000000000000000000000000081526004016103aa90610b10565b60405180910390fd5b6003604051806040016040528085815260200184815250908060018154018082558091505060019003906000526020600020906002020160009091909190915060008201518160000190816104089190610cdc565b5060208201518160010155505060016002600083815260200190815260200160002060006101000a81548160ff0219169083151502179055507fff4a39e50eb5f36410e19d249bca76c1ea9f6cdf1c03645cdab77d420205d1b98183604051610472929190610dd6565b60405180910390a1505050565b600083838360015460405160200161049a9493929190610ea4565b6040516020818303038152906040528051906020012090509392505050565b600081519050919050565b600082825260208201905092915050565b6000819050602082019050919050565b600081519050919050565b600082825260208201905092915050565b60005b8381101561051f578082015181840152602081019050610504565b60008484015250505050565b6000601f19601f8301169050919050565b6000610547826104e5565b61055181856104f0565b9350610561818560208601610501565b61056a8161052b565b840191505092915050565b6000819050919050565b61058881610575565b82525050565b600060408301600083015184820360008601526105ab828261053c565b91505060208301516105c0602086018261057f565b508091505092915050565b60006105d7838361058e565b905092915050565b6000602082019050919050565b60006105f7826104b9565b61060181856104c4565b935083602082028501610613856104d5565b8060005b8581101561064f578484038952815161063085826105cb565b945061063b836105df565b925060208a01995050600181019050610617565b50829750879550505050505092915050565b6000602082019050818103600083015261067b81846105ec565b905092915050565b600073ffffffffffffffffffffffffffffffffffffffff82169050919050565b60006106ae82610683565b9050919050565b6106be816106a3565b82525050565b60006020820190506106d960008301846106b5565b92915050565b6000604051905090565b600080fd5b600080fd5b600080fd5b600080fd5b7f4e487b7100000000000000000000000000000000000000000000000000000000600052604160045260246000fd5b6107358261052b565b810181811067ffffffffffffffff82111715610754576107536106fd565b5b80604052505050565b60006107676106df565b9050610773828261072c565b919050565b600067ffffffffffffffff821115610793576107926106fd565b5b61079c8261052b565b9050602081019050919050565b82818337600083830152505050565b60006107cb6107c684610778565b61075d565b9050828152602081018484840111156107e7576107e66106f8565b5b6107f28482856107a9565b509392505050565b600082601f83011261080f5761080e6106f3565b5b813561081f8482602086016107b8565b91505092915050565b60006020828403121561083e5761083d6106e9565b5b600082013567ffffffffffffffff81111561085c5761085b6106ee565b5b610868848285016107fa565b91505092915050565b60008115159050919050565b61088681610871565b82525050565b60006020820190506108a1600083018461087d565b92915050565b6108b081610575565b81146108bb57600080fd5b50565b6000813590506108cd816108a7565b92915050565b600080604083850312156108ea576108e96106e9565b5b600083013567ffffffffffffffff811115610908576109076106ee565b5b610914858286016107fa565b9250506020610925858286016108be565b9150509250929050565b7f4e487b7100000000000000000000000000000000000000000000000000000000600052602260045260246000fd5b6000600282049050600182168061097657607f821691505b6020821081036109895761098861092f565b5b50919050565b600082825260208201905092915050565b7f4f6e6c7920746865206f776e65722063616e20706572666f726d20746869732060008201527f616374696f6e0000000000000000000000000000000000000000000000000000602082015250565b60006109fc60268361098f565b9150610a07826109a0565b604082019050919050565b60006020820190508181036000830152610a2b816109ef565b9050919050565b7f4861736820636f64652063616e6e6f7420626520656d70747900000000000000600082015250565b6000610a6860198361098f565b9150610a7382610a32565b602082019050919050565b60006020820190508181036000830152610a9781610a5b565b9050919050565b7f50726f6475637420776974682074686973206861736820636f646520616c726560008201527f6164792065786973747300000000000000000000000000000000000000000000602082015250565b6000610afa602a8361098f565b9150610b0582610a9e565b604082019050919050565b60006020820190508181036000830152610b2981610aed565b9050919050565b60008190508160005260206000209050919050565b60006020601f8301049050919050565b600082821b905092915050565b600060088302610b927fffffffffffffffffffffffffffffffffffffffffffffffffffffffffffffffff82610b55565b610b9c8683610b55565b95508019841693508086168417925050509392505050565b6000819050919050565b6000610bd9610bd4610bcf84610575565b610bb4565b610575565b9050919050565b6000819050919050565b610bf383610bbe565b610c07610bff82610be0565b848454610b62565b825550505050565b600090565b610c1c610c0f565b610c27818484610bea565b505050565b5b81811015610c4b57610c40600082610c14565b600181019050610c2d565b5050565b601f821115610c9057610c6181610b30565b610c6a84610b45565b81016020851015610c79578190505b610c8d610c8585610b45565b830182610c2c565b50505b505050565b600082821c905092915050565b6000610cb360001984600802610c95565b1980831691505092915050565b6000610ccc8383610ca2565b9150826002028217905092915050565b610ce5826104e5565b67ffffffffffffffff811115610cfe57610cfd6106fd565b5b610d08825461095e565b610d13828285610c4f565b600060209050601f831160018114610d465760008415610d34578287015190505b610d3e8582610cc0565b865550610da6565b601f198416610d5486610b30565b60005b82811015610d7c57848901518255600182019150602085019450602081019050610d57565b86831015610d995784890151610d95601f891682610ca2565b8355505b6001600288020188555050505b505050505050565b6000819050919050565b610dc181610dae565b82525050565b610dd081610575565b82525050565b6000604082019050610deb6000830185610db8565b610df86020830184610dc7565b9392505050565b60008160601b9050919050565b6000610e1782610dff565b9050919050565b6000610e2982610e0c565b9050919050565b610e41610e3c826106a3565b610e1e565b82525050565b600081905092915050565b6000610e5d826104e5565b610e678185610e47565b9350610e77818560208601610501565b80840191505092915050565b6000819050919050565b610e9e610e9982610575565b610e83565b82525050565b6000610eb08287610e30565b601482019150610ec08286610e52565b9150610ecc8285610e30565b601482019150610edc8284610e8d565b6020820191508190509594505050505056fea26469706673582212204462345c564041ea09b1c84eb32d108343eaa4cac86c3885b61c46287ae32bdf64736f6c63430008110033a2646970667358221220056d27dea46330eb3c827e7041a6cb607c9937ff5478836fd3d0994e0efee23164736f6c63430008110033",
  "linkReferences": {},
  "deployedLinkReferences": {}
}